:020000040800F2
:10000000F01600206102000879250008712500081B
:100010007525000835150008C526000800000000F9
:10002000000000000000000000000000C1250008E2
:1000300039150008000000007D250008852600080D
:100040007B0200087B0200087B0200087B0200089C
:100050007B0200087B0200087B0200087B0200088C
:100060007B0200087B0200087B0200087B0200087C
:100070007B0200087B0200087B0200087B0200086C
:100080007B0200087B0200087B0200087B0200085C
:100090007B0200087B0200087B0200087B0200084C
:1000A0007B0200087B0200087B0200087B0200083C
:1000B0007B0200087B020008B92600087B020008CA
:1000C0007B0200087B0200087B0200087B0200081C
:1000D0007B0200087B0200087B0200087B0200080C
:1000E0007B0200087B0200087B02000800F002F897
:1000F00000F0A6F814A696E8000CB244B344DA4522
:1001000001D100F09DF8BAE80F000FA696E8300084
:10011000A5EB040504EB0607AAEB0704A7F101070A
:100120004FEA15154FEA3414A4F10104AC4201D38F
:1001300000F086F813F0010F18BFFB1A43F001031B
:1001400000F001F8DBE718473C4E00005C4E000071
:10015000103A24BF78C878C1FAD8520724BF30C8F3
:1001600030C144BF04680C60704700007047000055
:100170000023002400250026103A28BF78C1FBD8B0
:10018000520728BF30C148BF0B6070476E2900F08E
:10019000D581702900F01983662904F053866529FA
:1001A00004F05086672904F04D86612904F04C86DE
:1001B00003681B0A28BF41F08001692900F0828191
:1001C000642900F07F81752900F07C816F2900F09F
:1001D000A782782900F0E582E92900F04182E4292C
:1001E00000F03E82F52900F03B82EF2900F0A48266
:1001F000F82900F0E4820368DB0928BF41F08001A0
:10020000632901F01780732901F01C80E32901F0B4
:100210002780F32901F02C80002070471FB501F0E2
:100220007DF804000020002104F0F6FD401C606011
:100230000020002104F0DAFDE0601FBD10B510BD04
:1002400001F03EF81146FFF7E9FF02F05FFA01F016
:100250001BF903B4FFF7F2FF03BC01F063F90000E0
:100260000948804709480047FEE7FEE7FEE7FEE74A
:10027000FEE7FEE7FEE7FEE7FEE7FEE70448054986
:10028000054A064B70470000B5260008ED0000083F
:10029000F0100020F0160020F0120020F0120020D4
:1002A0007CB51D4616460C00009007D04142A14285
:1002B00002D32044401E01E04FF0FF30064B7B4448
:1002C0002A4669460190304600F051F9002C02D0D0
:1002D000009A002111707CBDD3020000032A40F275
:1002E000308010F0030C00F0158011F8013BBCF1D8
:1002F000020F624498BF11F801CB00F8013B38BFF0
:1003000011F8013BA2F1040298BF00F801CB38BFFD
:1003100000F8013B11F0030300F02683083AC0F017
:10032000088051F8043B083A51F804CBA0E80810C3
:10033000F5E7121D5CBF51F8043B40F8043BAFF3F6
:100340000080D20724BF11F8013B11F801CB48BF50
:1003500011F8012B24BF00F8013B00F801CB48BF86
:1003600000F8012B70474FF000020429C0F0128002
:1003700010F0030C00F01B80CCF1040CBCF1020F58
:1003800018BF00F8012BA8BF20F8022BA1EB0C012D
:1003900000F00DB85FEAC17C24BF00F8012B00F823
:1003A000012B48BF00F8012B70474FF0000200B549
:1003B000134694469646203922BFA0E80C50A0E888
:1003C0000C50B1F12001BFF4F7AF090728BFA0E836
:1003D0000C5048BF0CC05DF804EB890028BF40F802
:1003E000042B08BF704748BF20F8022B11F0804F44
:1003F00018BF00F8012B704770477047704770B501
:10040000044685690068C10601D5302600E0202633
:10041000C00707D070BDD4E9012130469047206A5B
:10042000401C20626D1EF6D570BD70B5044685690E
:100430000078C00707D170BDD4E901212020904782
:10044000206A401C20626D1EF6D570BD09684A0501
:1004500001D540B27047C905FCD500B270470968A4
:100460004A0501D5C0B27047C905FCD580B27047B6
:1004700070B50C460546012A05D02878800600D5BF
:10048000EA69002302E0012305E05B1C934202D2EB
:10049000E05C0028F9D1A869E618C01AA861286AAA
:1004A000184428622846FFF7AAFF04E0D5E9012195
:1004B00014F8010B9047B442F8D32846FFF7B5FF74
:1004C00070BD00002DE9F041064600241068752932
:1004D000314616A510D0FFF7B9FF002802DA4042D6
:1004E00013A507E031688A0701D512A502E0490784
:1004F00004D511A5012401E0FFF7B1FF00210A2274
:1005000006F1240709E0B0FBF2FCB0FBF2F302FBBA
:100510001C00303078541846491C0028F3D123467B
:100520002A463046BDE8F04100F095BA00000000D0
:100530002D0000002B000000200000001168026860
:10054000006A530501D508700AE0D30501D508807B
:1005500006E0130603D5C217C1E9000200E00860F7
:100560000120704701694A1C02610878704700B594
:100570008FB0CDE901310021059105497944CDE9DC
:1005800003101146684600F02BF90FB000BD0000C3
:10059000E5FFFFFFD1E900239A4202D2531C0B6012
:1005A000107070472DE9FF5F15468A460446DFF854
:1005B000AC80F8440027D8E900103E46CDE9001091
:1005C00010E03AF816106A4602A800F055FE411CE9
:1005D00007D02178890603D5E269391891420DD8F0
:1005E0000744761C2078800602D5E069B84205DD14
:1005F000AE42E6DB3AF816000028E2D1A069C01B43
:10060000A0612046FFF7FBFED8E90010CDE90010FD
:10061000002017E03AF818106A4602A800F02CFEF5
:10062000B0F1FF3F81460BD000250DF1080B05E02E
:10063000D4E901211BF8050090476D1C4D45F7D307
:1006400008F10100B0428046E4DB206A38442062B1
:100650002046FFF7EAFEBDE8FF9F00009648000035
:100660002DE9F0418046D21D22F007020025D2E993
:100670000002F52915A614D0011E72F1000106DA58
:100680000023D0EB030063EB020211A608E0D8F8C8
:1006900000108B0701D50FA602E0490701D50EA671
:1006A00001251146002408F1240704E000F08EF92A
:1006B00030323A55641C50EA0102F7D12B463246DB
:1006C00021464046BDE8F04100F0C5B900000000F9
:1006D0002D0000002B0000002000000030B400219D
:1006E00000F1240408E002F00705D208303542EAA0
:1006F0004372DB086554491C52EA0305F3D10468D0
:10070000002310A2250708D504F020040C4304D0D0
:10071000C46901230CA2641EC46130BC00F09BB903
:1007200010B5044621461068FFF799FE02462046A0
:10073000BDE810400023D1E7D21D22F00701D1E926
:100740000023CBE70000000030000000F0B40D46AD
:100750000188090502D5214C7C4402E01F4C7C44F1
:100760000E34002100F1240608E002F00F07120900
:10077000E75D42EA03721B097754491C52EA0307FA
:10078000F3D102780023120704D5702D06D009B1E9
:10079000022311342246F0BC00F05DB9012310346D
:1007A000F8E770B504460D4621461068FFF757FE7E
:1007B000024629462046BDE870400023C6E7D21D08
:1007C00022F00703D3E90023C0E70368126843F06F
:1007D000200303600823C3610023B7E7F846000045
:1007E0002DE9F05F894604464FF0000ADFF874B146
:1007F000FB44C0F820A02046E1688847002874D058
:10080000252806D0D4E901219047206A401C2062A7
:10081000F1E700265F462046E16888472028054624
:1008200007DB312D05D2781910F8200C08B10643EA
:10083000F1E7B00701D526F00406C4F81CA0002794
:10084000C4F818A02A2D09D0284604F0C7FA38B3F6
:1008500004EB8708303DC8F8185019E059F8041B1C
:10086000204604EB87029161E1688847012F054625
:1008700018D1E069002820DA26F020061DE0D8F81B
:10088000180000EB800005EB40003038C8F8180075
:100890002046E1688847054604F0A0FA0028EED11A
:1008A000012F0AD02E2D08D12046E16888477F1CF1
:1008B0000546022F46F02006C4DBA069002803DAB3
:1008C000404246F00106A061F00701D026F0100674
:1008D0006C2D0BD0682D09D04C2D39D06A2D35D018
:1008E000742D35D07A2D33D016E038E0E1682F46EC
:1008F00020468847B842054609D16C2F26D04FF4D0
:100900008060E168064320468847054604E06C2F76
:100910001AD04FF4807006430DB3A5F14100192899
:1009200002D8203546F400664A462946204626600D
:100930004E46FFF72BFC80B101280BD0F61D26F0A8
:10094000070000F1080956E74020E4E78020D8E7D7
:100950000020D6E706F104094DE7284652E7206A51
:10096000BDE8F09F8846000010B5203AC0F00B802B
:10097000B1E81850A0E81850B1E81850A0E8185095
:10098000203ABFF4F5AF5FEA027C24BFB1E818500B
:10099000A0E8185044BF18C918C0BDE810405FEA6D
:1009A000827C24BF51F8043B40F8043B08BF7047E9
:1009B000D20728BF31F8023B48BF11F8012B28BFEE
:1009C00020F8023B48BF00F8012B704730B5B0F16A
:1009D0000A0271F100034FEA900E4EEA817EB0EBFD
:1009E0000E0061EB91014FEA101E4EEA017E10EB02
:1009F0000E0041EB11114FEA102E4EEA016E10EB82
:100A00000E0041EB11214FEA104E4EEA014E10EB61
:100A10000E0041EB1141401841F100014FEAD000B6
:100A200040EA41704FEAD1014FEA810444EA9074F0
:100A300010EB800544EB01046D1944EB0404521BD8
:100A4000A3414FF0000348BF0A3200D530BD401C1F
:100A500041F1000130BD2DE9F0470D46994692461F
:100A6000044600F124080168880604D5E06921F0F5
:100A70001001216000E00120A84201DD471B00E0D9
:100A80000027A1697A1902EB0900081AA0612078F1
:100A9000C00602D42046FFF7B2FC002608E0D4E9E5
:100AA00001211AF806009047206A401C761C20623B
:100AB0004E45F4DB2078C0060AD52046FFF79FFCA0
:100AC00006E0D4E9012130209047206A401C2062D2
:100AD000381EA7F10107F4DC07E0D4E9012118F87A
:100AE00005009047206A401C2062281EA5F10105E0
:100AF000F3DC2046FFF799FC2078000602D502209F
:100B0000BDE8F0870120FBE72DE9FF4F0C461E46AC
:100B10004FF0FF378BB0D2E90001DDF860800A901A
:100B20008A46C1F30A5505B93D46002108464FF0F3
:100B30000000BAF1000F00F4400005DA00EB80007D
:100B40004FF4400101EA50004FEA9059B9F1010F0A
:100B500000DDB9460A9850EA4A000ED044F610501B
:100B6000A5F2FF3545432F14B8F1000F1ED0754292
:100B7000291E1EDDC9F100021CE0B8F1010F4FF083
:100B8000000001D0302103E0F24305E02154401C75
:100B9000B042FBDB30460022002121540B99C1F802
:100BA0000880C1E900200FB0BDE8F08FBD1B6D1CAF
:100BB000DEE74A4600DA694206A800F0F3FB06AB1E
:100BC00093E8070003AB83E8070050460A9903F057
:100BD00028FD8DE80700A0F500501F38009003980D
:100BE000002D0ADD42F21F014A460844002303A9F2
:100BF0000390684603F092FF09E0A0F500504A46D2
:100C00001F38002303A90390684603F09CFF8DE87A
:100C100007000004000C03D04FF0FF30410800E053
:100C20001046B8F1000F03D00022009215461EE0D6
:100C3000751E05D4FFF7CAFE303262556D1EF9D518
:100C4000B3460122084302D000227F1C04E0207832
:100C5000302801D100227F1E002A099784D01DE090
:100C6000112D07DAFFF7B2FE303262556D1C50EAE3
:100C70000102F5D1084302D00098C8B10EE000216E
:100C8000681E05E0235C625C63542254401E491CCC
:100C90008142F7DBAB46A81B401E0990002004F8F8
:100CA0000B000B98099AC0F80880C0E9002B7AE77E
:100CB00011264FF0000857E72DE9F04F884604460B
:100CC000D21D22F0070191B0D1E90001CDE90A015E
:100CD00004F070F802460B98C00F01D02D2007E0F9
:100CE0002068810701D52B2002E0202101EAC00005
:100CF000032A099001D0072A05DB03464146204616
:100D000000F010FB0BE12078800601D5E06900E0DF
:100D10000620B8F1650F814606D0B8F1660F18D0ED
:100D2000B8F1670F70D131E00020B9F1110F0090D8
:100D300001DB112301E009F101030AAA01A90CA8B2
:100D4000FFF7E2FEDDE90C70002609F1010583469C
:100D500047E001204B4600904FF000470AAA01A946
:100D60000CA8FFF7D1FEDDE90DB00C995D46002619
:100D700010B909F101000D18B9EB050003D4C0F159
:100D8000FF3609F10105A5EB09002BE0B9F1010FD0
:100D900001DA4FF001090020B9F1110F0090484627
:100DA00001DD112300E003460AAA01A90CA8FFF700
:100DB000ABFEDDE90C704D46002683462078000727
:100DC0000AD4AB4500DA5D4601A8012D04DD4119C6
:100DD00011F8011C302907D04F4502DA17F1040F32
:100DE00004DA012082460FE06D1EEEE7002F02DCE0
:100DF000ED1B3E4403E0781CA84200DD7D1CB81BBF
:100E000000F1010A4FF000472078000703D4AA45FB
:100E100001DB4FF0FF3A0021B7F1004F0DF143081D
:100E20008DF8431024D002202B23002F01DA7F42BB
:100E30002D230A21021EA0F1010000DC5FB197FB07
:100E4000F1FC97FBF1F201FB1C7C17460CF1300C16
:100E500008F801CDEEE7A8F101000370218809052B
:100E600001D5452100E06521A0F1010800F8011C31
:100E700009980FA9A1EB0807FF1D00B10120411936
:100E800001EBEA70A1693844081A401EA06120787D
:100E9000C00602D42046FFF7B2FA099828B1D4E977
:100EA00001219047206A401C20622078C00622D58C
:100EB0002046FFF7A4FA1EE0002E04DBB34502DD56
:100EC00001A8805D00E03020D4E901219047206A2C
:100ED000401C2062761CAAF101005FEA000A0AD1D8
:100EE00000F01CFAC0680168405CD4E90121904719
:100EF000206A401C2062281EA5F10105DCDC07E009
:100F0000D4E9012118F8010B9047206A401C2062A7
:100F1000381EA7F10107F3DC2046FFF786FA03200D
:100F200011B041E62DE9F04F04460D46D21D22F0E6
:100F3000070089B0D0E900974846394603F03AFFE8
:100F40000246F80F01D02D2307E02068810701D564
:100F50002B2302E0202101EAC0038DF820300BB1E1
:100F6000012000E00020032A824601D0072A04DB8A
:100F70002946204600F0D6F93FE12078800601D4CA
:100F80000D2500E0E569C7F30A560D2D49DA002169
:100F90004FEA175B08464FF00000002F00F44000B6
:100FA00007DA00EB80004FF4400100EBD07001EA5B
:100FB00060008115012901DD4FF0FF3100224FEA69
:100FC000850CBCF1180F06D31346ACF118004FF096
:100FD0008052C24003E04FF4801323FA0CF30CF16B
:100FE0000C0CBCF1200F04D3ACF1200C09FA0CF06E
:100FF00001E007FA0CF000294FF0004801DD18B9B4
:101000000FE00ED140450CD319EB02095F4121B925
:10101000404502D19F4329EA0209BBEB175F00D08C
:10102000761C2088000502D57B48784402E07A4887
:101030007844193808AA302302F80A30037C0AF1F0
:101040000101002E0AF1020A53546A4602DC4FF0F5
:10105000300101E04FF031014FF001088DF8001030
:1010600002D0A6F2FF3603E059EA470100D06B4EEA
:10107000002D02DC2178090704D54FF002082E214B
:101080008DF80110C44600210BE0C7F303433F0174
:10109000C35C491C6D1E02F80830052908F10108DF
:1010A00001DA002DF1DC00210CE000EB1973491C82
:1010B0001B786D1E082902F808304FEA091908F15B
:1010C000010801DA002DF0DC21688B0602D516E05C
:1010D000A8F10108E04505DD02EB080313F8013C27
:1010E000302BF5D0B8F1000F09DD02EB080313F83F
:1010F000013C2E2B03D1090701D4A8F10108002DD2
:1011000005DD3E2102F808106D1E08F10108407C43
:10111000002E02F8080008F1010804DA2D207642BA
:1011200002F8080002E02B2002F808000A214FF420
:101130007A70864208F101080BDB96FBF0F330333E
:1011400002F8083096FBF0F308F1010800FB136683
:1011500001E0642E0CDB642096FBF0F3303302F8E0
:10116000083096FBF0F308F1010800FB136601E07C
:101170000A2E06DB96FBF1F0303002F8080008F189
:10118000010896FBF1F001FB1060303002F8080016
:10119000A16908F1010808EB050202EB0A00081A30
:1011A000A0612078C00602D42046FFF728F9216A02
:1011B00008AE01EB0A00206204E0D4E9012116F830
:1011C000010B9047BAF1010AF7D22078C00602D588
:1011D0002046FFF714F96E4609E016F8010B3E2889
:1011E0000FD0D4E901219047206A401C2062B8F159
:1011F0000108F2D22046FFF718F909B00320BDE834
:10120000F08F206A2844206203E0D4E901213020D5
:1012100090476D1EEBD3F8E7723E000002FCFFFF23
:1012200010B5436913B1AFF3008001E0FFF720F977
:10123000012010BD127800F124010A7000224A70CA
:101240000122EDE711684FF0FF32E9E710B543697D
:1012500013B1AFF3008001E0FFF7A4F9012010BD46
:10126000128800F1240182840022C2840122EDE769
:1012700011684FF0FF32E9E72DE9F04116460C46C0
:10128000054600F043F8036893F80101012807D0F0
:10129000FF2C12D8185D80B101202C70BDE8F081C0
:1012A000D3F807013246214603F20713C718284630
:1012B000BC46BDE8F041002360474FF0FF30EDE74A
:1012C000754600F0EBF8AE4605006946534620F03F
:1012D0000700854618B020B5FEF7D0FFBDE82040D6
:1012E0004FF000064FF000074FF000084FF0000BE2
:1012F000AC46ACE8C009ACE8C009ACE8C009ACE851
:10130000C00921F007018D467047000010B500F0BC
:1013100005F8001D10BD00BF013B000000487047EC
:10132000380000202DE9F0411F46044603260168DD
:10133000072A01F4006004DB08B116A505E016A534
:1013400003E008B115A500E015A521F0100020600C
:10135000A069C01EA0610FB1401EA0612046FFF72A
:101360004EF84FB1D4E9012138469047206A401C1D
:101370002062C01C206206E0206AFAE7D4E901215D
:1013800015F8010B9047761EF8D22046FFF74DF86E
:10139000BDE8F0814E414E006E616E00494E460040
:1013A000696E66002DE9F047814616468AB03548D9
:1013B00078440DC88DE80D0032487844801C03AC99
:1013C0000DC884E80D0041F69B300844372190FB9E
:1013D000F1F290FBF1F5A5F1800501FB12041B3C35
:1013E00002D56442012000E00020DFF898A080468A
:1013F0000027FA44AAF1BE0A0EE0E0070AD03246FE
:10140000684607EB470101230AEB810103F09BFBD0
:101410008DE8070064107F1C002CEED1194F7F442B
:10142000AE3F19E0E80715D007EB04100DF1180ADC
:1014300090E80E008AE80E00C068F04201D19819C9
:1014400008903246012306A903A803F07CFB03ABF6
:1014500083E807006D10641C002DE3D14FF00103F9
:1014600032466946B8F1000F03A802D003F056FBDC
:1014700001E003F068FBC9E90001C9F808200AB0DF
:10148000BDE8F0877C3B000010B50446AFF3008058
:101490002046BDE81040FEF7DCBE00000048704763
:1014A000180000204FF0013C50F8042B51F8043B89
:1014B0009A4221D1A2EB0C03934313EACC1317D128
:1014C00050F8042B51F8043B9A4215D1A2EB0C03BF
:1014D000934313EACC130BD150F8042B51F8043B7F
:1014E0009A4209D1A2EB0C03934313EACC13DBD04D
:1014F0004FF00000704700BFD01A01BAB1FA81F175
:1015000001F0180122FA01F0CB40DBB2C0B2C01AE0
:10151000C1F120012CFA01F3D11A914311EAC31150
:10152000E6D1704701491820ABBEFEE72600020055
:1015300070470000FEE70000704700002DE9F04F03
:1015400082B00E68002E00F0FD8041F20042C4F22D
:101550000102042340F2004E904208BF03234FF6DD
:10156000FF7CC4F2010E009300240123C1F2100C91
:101570004FF0000A4FF000094BE000BF41F20002BB
:10158000C4F20102009F904208BF022704F00C033E
:101590000F229A402BEA020207FA03F34FEA9A0558
:1015A0001A4346F825204E6840F20C45F202DEF858
:1015B000082054BF22EA080242EA0802C4F20105E8
:1015C000CEF808202A68B30254BF22EA080242EA91
:1015D00008022A60B303DEF8042054BF22EA08029E
:1015E00042EA0802F303CEF80420DEF800204FF0B0
:1015F000010354BF22EA080242EA0802CEF80020A2
:101600000E680AF1010A36FA0AF204F1040400F045
:10161000998003FA0AFB16EA0B08F1D04E6866457A
:1016200012DC122E56D8DFE806F0350B4D49555521
:10163000555555555555555555555545510000BFAE
:10164000D1F80C9046E000BF4FF6FF72C1F22102C4
:1016500096420FDC0022C1F2110296421AD00022FB
:10166000C1F21202964215D00022C1F22102964226
:1016700010D02FE00022C1F2220296420AD00022AE
:10168000C1F23102964205D00022C1F232029642E6
:1016900020D100BF8A684AB1012A14BFC0F814B033
:1016A000C0F810B04FF0080914E000BF4FF0040973
:1016B00010E000BFCA6802F104090BE04FF0000916
:1016C00008E000BFCA6802F1080903E0CA6802F135
:1016D0000C0900BF02462646B8F5807F24BF0432BD
:1016E000203E17680F25B54027EA050509FA06F6DA
:1016F00035431560CA79D2067FF582AF41F21803EF
:10170000C4F202031A68AEF57E7642F001021A6056
:101710001A6802F001020192019A2AF0030256F8B7
:1017200002B040F60002C4F20102904208D040F636
:101730000042C4F2010290427FF420AF012725E766
:10174000002723E702B0BDE8F08F000040F6986064
:10175000C2F200000068704740F2000040F6986155
:10176000C2F20000C2F2000100780A68104408606A
:101770007047000080B542F20000C4F20200016828
:1017800041F010010160032000F0C8F80F2000F0C4
:1017900005F800F05DF8002080BD0000B0B586B00F
:1017A00041F21C01C4F202010A68044642F004023C
:1017B0000A60096801A801F00401019101996946D4
:1017C00000F09AF9049D002D18BF012500F0B6F92C
:1017D0004DF68361A840C4F21B31A0FB01014FF01C
:1017E000FF3000EB914140F2781040F60002C2F267
:1017F0000000C4F2000240F2E7330025C0E90021F6
:10180000C0E902530561856100F0C4FB10B106B068
:10181000B0BD00BF40F27810C2F2000000F03AFC08
:101820000028F4D11E2000F03BF80F2C0CD81E200D
:101830002146002200F046F840F204010020C2F2E6
:1018400000010C6006B0B0BD012006B0B0BD0000C4
:1018500080B582B041F21800C4F202000168002293
:1018600041F001010160016801F00101019101995C
:10187000416841F08051416040680F2100F0805084
:10188000009000986FF0010000F01CF80420C4F2F2
:1018900001000168022262F31A61016002B080BD9A
:1018A000002848BF704700F01F01012202FA01F131
:1018B0001C2202EAD0004EF20012CEF20002815049
:1018C0007047000010B54EF60C5CCEF2000CDCF850
:1018D0000030C3F3022E8EF00704042C28BF04242A
:1018E000BEF103034FF0FF3E0EFA04F438BF0023AD
:1018F000A14399400EFA03F39A43114300F00F02FB
:1019000000F160430901043A03F56443624400288E
:1019100048BF02F10C03197010BD00004EF60C51C7
:10192000CEF200010A684FF6FF031A4060F30A2264
:1019300042F0806040F0FD7008607047002804BFEE
:10194000012070472DE9F04381B042F20008C4F253
:1019500002080446D8F800000D4600F00700814256
:101960000CD9D8F8000020F007002843C8F8000080
:10197000D8F8000000F00700A8426CD1206841F2BE
:1019800004098107C4F2020917D5410705D5D9F822
:10199000001041F4E061C9F80010010705D5D9F83D
:1019A000001041F46051C9F80010D9F80010A26885
:1019B00021F0F0011143C9F80010C00742D1D8F856
:1019C000000000F0070085420CD2D8F8000020F09B
:1019D00007002843C8F80000D8F8000000F007000E
:1019E000A84238D12068410707D5D9F80010E2682D
:1019F00021F4E0611143C9F80010000708D5D9F8B7
:101A00000000216920F4605040EAC100C9F80000DC
:101A1000D9F8002002F00C00082841F20020C0F2A2
:101A20007A004DD144F66273C2F38341C0F60003DD
:101A3000595CD20338D440F60010C0F23D00484350
:101A40003EE000BF606859F8041C022808D0012855
:101A500026D1890306D4012001B0BDE8F08300BF80
:101A60008901F8D5D9F8001021F003010843C9F81D
:101A70000000FFF76BFE064641F28837D9F80000F8
:101A8000616800F00C00B0EB810F98D0FFF75EFEAC
:101A9000801BB842F2D9032001B0BDE8F08300BF3B
:101AA0008907D8D5DEE700BFD9F8002044F6607377
:101AB000C2F34042C0F600039A5C4843B0FBF2F028
:101AC000D9F8001044F64872C1F30311C0F60002C1
:101AD000515C40F2080220FA01F140F20400C2F227
:101AE00000000068C2F200021160FFF757FE0020FC
:101AF00001B0BDE8F08300000F22026041F2040251
:101B0000C4F20202136803F003034360136803F096
:101B1000F0038360136803F4E063C36012684FF45A
:101B2000E06303EAD202026142F20000C4F2020062
:101B3000006800F0070008607047000040F20800ED
:101B400041F20401C2F20000C4F202010068096817
:101B500044F65872C1F30221C0F60002515CC8403D
:101B60007047000040F2080041F20401C2F2000098
:101B7000C4F202010068096844F65872C1F3C22138
:101B8000C0F60002515CC84070470000002804BF46
:101B9000012070472DE9F04182B00446007841F2FF
:101BA0000006C007C4F202060CD0706800F00C00FA
:101BB000042840F081803068800303D560680028E5
:101BC00000F04681207880071BD5706810F00C0F5C
:101BD00009D0706800F00C00082840F08780706819
:101BE000C00300F183803068800703D52069012895
:101BF00040F02E813068616920F0F80040EAC100B1
:101C000030602078000713D4207840072CD4E56991
:101C1000002D00F01881706800F00C00082840F0DA
:101C2000A780012D40F00481012002B0BDE8F081C1
:101C3000A069002800F084800020C4F24220012125
:101C4000C0F88014FFF782FD054600BF706A800768
:101C500000F1B280FFF77AFD401B0228F6D903207D
:101C600002B0BDE8F08100BFF0695FEAC00808D4A7
:101C7000F06940F08050F061F06900F08050009011
:101C8000009847F20007C4F200073868C00549D43D
:101C9000386840F480703860FFF758FD054600BF93
:101CA0003868C0053ED4FFF751FD401B6428F7D9C2
:101CB000032002B0BDE8F081706800F00C00082835
:101CC00003D17068C0033FF576AF616830680029C2
:101CD00000F00C81B1F5A02F00F00081B1F5803F3C
:101CE00040F01A8140F480301CE100BF20690028D8
:101CF00040F20000C4F2422000F08880012101601F
:101D0000FFF724FD054600BF306880073FF572AF3E
:101D1000FFF71CFD401B0228F6D9032002B0BDE8E6
:101D2000F08100BFE168306A002900F09D8005293C
:101D300000F09280012940F0AF8040F00100B1E056
:101D40000020C4F242200021C0F88014FFF7FEFCFE
:101D5000054600BF706A80077FF556AFFFF7F6FCB7
:101D6000401B0228F6D9032002B0BDE8F08100BF75
:101D70000027C4F2422700203866FFF7E7FC022D57
:101D800005460DD13068800140F1DE80FFF7DEFCB2
:101D9000401B02284FF00300F4D902B0BDE8F081E7
:101DA000306880014FD5FFF7D1FC401B02284FF06F
:101DB0000300F5D9F1E700BF40F20800C2F20000CD
:101DC000006844F6D351C1F26201A0FB0101480A48
:101DD000019000BF00BF0198411E002801913FF40F
:101DE00013AF00BF0198411E002801913FF40CAFD2
:101DF00000BF0198411E002801913FF405AF00BFCC
:101E00000198411E00280191E4D1FDE60021016006
:101E1000FFF79CFC054600BF306880077FF5F1AEF8
:101E2000FFF794FC401B02284FF00300F4D9B4E7FD
:101E30007068216A00F480328A4209D1616A00F434
:101E40007010884204D1002002B0BDE8F08100BFCC
:101E5000012002B0BDE8F08140F004003062306A39
:101E600040F001001EE000BF20F001003062306A47
:101E700020F004003062FFF769FC054641F2883724
:101E8000306A800720D5FFF761FC401BB8424FF055
:101E90000300F5D981E700BF20F001003062306A0D
:101EA00020F004003062FFF751FC054641F288370C
:101EB000306A800708D4FFF749FC401BB842F7D9C5
:101EC000032002B0BDE8F081B8F1000F3FF59FAEEE
:101ED000F06920F08050F06199E600BF40F4802066
:101EE0003060306840F480301CE000BF20F4803067
:101EF0003060306820F480203060FFF727FC054612
:101F0000306880037FF55EAEFFF720FC401B64283D
:101F10004FF00300F4D940E720F48030306030689F
:101F200020F480203060FFF711FC05463068800304
:101F30003FF548AEFFF70AFC401B6428F6D90320A2
:101F400002B0BDE8F08100BF206AB0F5803F05D146
:101F50007168A26821F40031114371607168626A8E
:101F600021F4741111430843706001203866FFF7B3
:101F7000EDFB0446306880013FF565AFFFF7E6FBF7
:101F8000001B02284FF00300F4D906E77047000059
:101F900070470000002804BF0120704710B590F87A
:101FA0003D1031B9002180F83C10044600F070F873
:101FB0002046022180F83D10016840F2FF740B6852
:101FC000C4F2000442F6004CA142C4F2010C15DC3C
:101FD000B1F1804F1AD040F20042C4F200029142A7
:101FE00014D0A14218DCB1F1804F1DD040F2004264
:101FF000C4F20002914217D01AE000BF614505D03B
:1020000040F60002C4F200029142EAD1826823F055
:1020100070031343A142E6DD614505D040F600029E
:10202000C4F20002914203D1026923F440731343C6
:10203000846923F08002D0F804E0C368224361453C
:102040000A60CB62C1F828E002D14269CCF83020A6
:1020500001224A610B69DB0703D00B6923F00103FE
:102060000B6180F8462080F83E2080F83F2080F801
:10207000402080F8412080F8422080F8432080F8FA
:10208000442080F8452080F83D20002010BD00004D
:102090007047000090F83D1001291CBF01207047D7
:1020A000022180F83D10006840F2FF72C168C4F25E
:1020B0000002904241F00101C16009DCB0F1804FA3
:1020C00012D040F20041C4F2000188420CD012E06C
:1020D00042F60041C4F20101884205D040F60001F9
:1020E000C4F20001884206D1816801F00701062987
:1020F00004BF00207047016841F001010160002029
:10210000704700007047000070B504460068C5685D
:102110000669B10716D515F0020113D06FF0020160
:102120000161012121778069800703D02046FFF7F4
:10213000E9FF05E0204600F08FF8204600F08EF819
:1021400000202077700719D515F0040016D02068FC
:102150006FF00401016102212177806910F4407F52
:1021600004D02046FFF7CEFF06E000BF204600F077
:1021700073F8204600F072F800202077300717D55A
:1021800015F0080014D020686FF0080101610421E7
:102190002177C069800703D02046FFF7B3FF05E031
:1021A000204600F059F8204600F058F8002020772B
:1021B000F00619D515F0100016D020686FF0100148
:1021C000016108212177C06910F4407F04D02046C6
:1021D000FFF798FF06E000BF204600F03DF82046DC
:1021E00000F03CF800202077F00718BF15F0010040
:1021F00002D1300609D412E020686FF001010161BC
:10220000204600F02DF8300609D515F0800006D0E4
:1022100020686FF0800101612046FFF7B7FE70066D
:1022200009D515F0400006D020686FF0400101612B
:10223000204600F01FF8B00658BF70BD15F0200012
:1022400008D021686FF0200220460A61BDE8704086
:10225000FFF79EBE70BD0000704700007047000091
:10226000006840F60001C4F20001884218BF7047C0
:10227000FFF772BA70470000002804BF01207047C2
:1022800010B5044690F8410028B9002084F84000B9
:10229000204600F063F8242084F841002068D4E947
:1022A0000212C36823F40053C360036923F440534C
:1022B0001A430261D4E904231143C268194341F26D
:1022C0000C639A431143C1604169A26921F44071D2
:1022D000114343F60002C4F201029042416103D06F
:1022E000FFF72CFC02E000BFFFF73CFCD4E9002321
:1022F000192148439900B0FBF1F048F21F5CC5F288
:10230000EB1CA0FB0C314FF69C734909C0F6FF7320
:1023100001FB0300322303EB0010A0FB0C03F020B1
:1023200000EA531000EB0110C3F34311084490601E
:102330001069202120F490401061506920F02A009B
:102340005061D06840F40050D0600020606484F890
:10235000411084F84210606310BD000070B586B073
:1023600040F60004C4F20104006804F54051002660
:1023700088420596CDE90366029601D006B070BD8D
:1023800041F21800C4F20200016802AD41F480413C
:102390000160016801F4804101910199016841F0F7
:1023A000040101600068294600F0040001900198D2
:1023B0004FF4007002900220039003200590204605
:1023C000FFF7BCF84FF48060CDE9020620462946AD
:1023D0000496FFF7B3F806B070BD00002DE9F04396
:1023E00081B0044690F84100202809D100294FF01F
:1023F000010018BF002A07D101B0BDE8F08300BF7B
:10240000022001B0BDE8F0830020606421201D4659
:102410000E4684F841001746FFF798F9A784E78431
:10242000A1688146B1F5805F02D1206900285DD0A6
:1024300037460020E28C2168002A5DD06A1C24D037
:10244000002D4AD0804600BF0868000608D4FFF778
:102450007DF9A0EB0900A8427AD82168C868F3E7A3
:1024600017B117F8010B04E038F8020B00276FF3DF
:102470005F204860E08C0138E084E08C0028E3D1E4
:102480003AE000BF0A68120609D40A68120606D4A8
:102490000A6812065CBF0A685FEA0262F2D51FB1E1
:1024A00017F8012B05E000BF30F8022B00276FF36F
:1024B0005F224A60E28C013AE284E28C002AE4D195
:1024C0001AE000BF30F8022B00276FF35F224A604A
:1024D000E28C013AE284E28C72B10A68120635D5C8
:1024E000002FEFD017F8012BF1E700BF002730468F
:1024F000E28C2168002AA1D1086840061ED42DB3C1
:10250000681C14D1086840062AD40868400627D4FD
:102510000868400624D4086840064FF00000F1D552
:102520000DE000BF2068C1680068400618D4FFF7BE
:102530000DF9A0EB0900A842F4D909E00020202100
:1025400084F8411001B0BDE8F08300BFFFF7FEF84A
:102550000320202184F8411001B0BDE8F08300BFC2
:102560000020202184F8411001B0BDE8F083000074
:10257000FEE70000FEE70000FEE70000EFF3098041
:10258000BFF36F8F0D4B1A6820E9F00F10602DE933
:1025900008404FF0500080F3118800F0C1FF4FF069
:1025A000000080F31188BDE8084019680868B0E8A9
:1025B000F00F80F30988BFF36F8F70470802002087
:1025C000074B19680868B0E8F00F80F30988BFF37B
:1025D0006F8F4FF0000080F311884EF00D0E7047A2
:1025E0000802002040F2780540F20C0609A4C2F26D
:1025F0000005C2F2000600BF204600F065F842F276
:10260000107000F043F928683168642200F09CF9EA
:10261000F2E700BF5461736B20312069732072753B
:102620006E6E696E670A000084B040F278070DA4F0
:10263000C2F2000701AD10A6204600F045F8396847
:1026400028464FF0FF3200F043F901AA07CA07F10C
:102650000C0307C3304600F037F84FF47A7000F0EF
:1026600015F9E9E75461736B2032206973207275A4
:102670006E6E696E670A000044617461203D20251A
:10268000640A000080B54FF0500080F31188BFF35A
:102690006F8FBFF34F8F01F089FD30B14EF60450BC
:1026A000CEF200004FF080510160002080F31188CD
:1026B00080BD00007047000040F27810C2F20000B8
:1026C000FFF722BDFEE7000083B010B581B084465D
:1026D00003A80EC040F27800C2F2000000F1180416
:1026E00003AB2046282162460093FDF7D9FD40F256
:1026F000C010C2F20000214628224FF47A73FFF77F
:102700006DFE01B0BDE8104003B0704796B0FFF712
:1027100031F800240120CDE91144CDE90F440C909B
:1027200010904FF4E0104FF48031022515900CA862
:10273000CDE90D14CDE91351FFF728FA20B1EFF3DD
:10274000108072B6FEE700BF0F20CDE901054FF4FF
:102750008060CDE9040401A802210394FFF7EEF89C
:1027600020B1EFF3108072B6FEE700BF41F218000F
:10277000C4F202000168002341F0200101600168F9
:102780000C2501F020010C910C9901684FF4E13205
:1027900041F004010160006843F6000100F004000C
:1027A0000C900C9840F2C010C2F20000C4F201017B
:1027B00080E80E00C0E90333C0E90553C361FFF7A9
:1027C0005BFD28B1EFF3108072B600BFFEE700BFDB
:1027D0001C4808901BA0C268D0E901100B92CDE9FB
:1027E000091008A8002100F05FF840F27806C2F254
:1027F00000061849306017A0051D0C912ECDD0E9B8
:1028000005400DF1340C8CE82E00CDE911400CA8E8
:10281000002100F0C9F81649706015A0051D01914E
:102820002ECDD0E905400DF1080C8CE82E00CDE945
:10283000064001A8002100F0B7F8B06000F02EF8C3
:10284000FEE700BF0E0000000400000000000000D2
:1028500000000000794F000829260008020000004F
:1028600000000000800000000000000000000000E8
:10287000724F0008E525000803000000000000007A
:1028800080000000000000000000000080B501286A
:1028900098BF012000F038FD002080BD80B500F019
:1028A000BDFD002080BD000082686AB1C3685BB1D5
:1028B00080B582B003C84FF0000CCDF800C000F026
:1028C00089FF02B080BD00BF03C8002200F03ABFFC
:1028D000B0B582B004460020234643F8040F596087
:1028E000F1B10190EFF30580E0B101AA0846194665
:1028F00001F002FB01380199B0FA80F040094FEA7B
:1029000000102060E9B14EF60450CEF200004FF006
:1029100080510160BFF34F8FBFF36F8F02B0B0BD26
:1029200080200DE008461946154601F0C5F901283A
:1029300002D1102004E000BF002D18BF0125A8011E
:10294000206002B0B0BD000080B582B001910021CE
:102950000091EFF30581B9B101A96A46002301F0A6
:10296000FFF801281CD10098B8B14EF60450CEF201
:1029700000004FF080510160BFF34F8FBFF36F8FA6
:10298000002002B080BD00BF01A90023012A98BF2A
:10299000012200F085FF012802D1002002B080BD95
:1029A000FF2002B080BD0000B0B584B043698E4600
:1029B00093B1846984B10589D0E9001C026928B209
:1029C000843D18BFC51CCDE9005360467346029490
:1029D00001F090FB04B0B0BD0589D0E90013026995
:1029E00028B2843D18BFC51C03AC18467346CDE918
:1029F000005401F04FFB0399012818BF002108463D
:102A000004B0B0BD2DE9F04740F2C00440F2082503
:102A1000C2F20004C2F200050E46D4F828A0D4F891
:102A20001880D4F81C9029680746081D00F0ECFABD
:102A300010B1781C0BD01FE028680121C06A226801
:102A400001FA00F022EA00002060781C14D19EB147
:102A500054F8600F61682A68013091608A682B68B9
:102A6000DA602B68043353602A6804328A6029686C
:102A700020604C61BDE8F08728681AEB07064660C5
:102A8000286800F1040105D34846BDE8F04700F08E
:102A9000EFBA00BF404600F0EBFA606A864238BFEA
:102AA0006662BDE8F08700002DE9F04381B004467E
:102AB00000F010FB40F2C006C2F20006306940F29E
:102AC000082901303061C2F20009D9F8000040F253
:102AD0000C25C2F2000558B1B068002843D1D9F8DE
:102AE0000000E16AC06A884298BFC9F800403AE035
:102AF000C9F800403069012835D1284600F0A8FA0D
:102B000005F1140000F0A4FA05F1280000F0A0FA85
:102B100005F13C0000F09CFA05F1500000F098FA35
:102B200005F1640000F094FA05F1780000F090FAE5
:102B300040F25018C2F20008404600F089FA08F14D
:102B40001407384600F084FA06F14C0000F080FAD1
:102B500006F1380000F07CFA06F1600000F078FA27
:102B6000C6F81880F7613068716801220131716020
:102B7000E16A231D8A401043306001EB810005EBC0
:102B800080014A6861619768C4E90227936055F83B
:102B900020207B60511C45F8201000F0BFFAB0687F
:102BA00080B1D9F80000E16AC06A88420AD24EF6C4
:102BB0000450CEF200004FF080510160BFF34F8F00
:102BC000BFF36F8F01B0BDE8F083000040F2C00595
:102BD00040F20C264EF60458C2F20005C2F200067E
:102BE000CEF200084FF0805703E000BF204600F00F
:102BF000ADFAE868D0B100F06DFA686CC468201DC9
:102C000000F002FA286901382861E8680138E860B4
:102C100000F084FA94F851000228EAD00128E5D0A7
:102C200070B9206B00F092FAE0E700BF306802282C
:102C3000DFD3C8F80070BFF34F8FBFF36F8FD8E7B3
:102C40004FF0500080F31188BFF36F8FBFF34F8FA9
:102C5000FEE700002DE9F04381B00A9F8146089C01
:102C6000386B9846002942D00B7887F83430DBB3B4
:102C70004B7887F83530BBB38B7887F836309BB309
:102C8000CB7887F837307BB30B7987F838305BB374
:102C90004B7987F839303BB38B7987F83A301BB3DF
:102CA000CB7987F83B30FBB10B7A87F83C30DBB14E
:102CB0004B7A87F83D30BBB18B7A87F83E309BB1B9
:102CC000CB7A87F83F307BB10B7B87F840305BB124
:102CD0004B7B87F841303BB18B7B87F84230002B30
:102CE0001CBFC97B87F84310002187F84310072CCD
:102CF0000AD34FF0500080F31188BFF36F8FBFF3FA
:102D00004F8F00BFFEE700BF00EB8200043820F0C9
:102D10000706099D381DFC627C6400F0A5F907F1E7
:102D2000180000F0A1F9C4F10700B8613046494627
:102D300042463F617F6200F057F9002D386018BFAE
:102D40002F6001B0BDE8F08306480068006880F39A
:102D5000088862B661B6BFF34F8FBFF36F8F00DF95
:102D600000BF000008ED00E081B00020009040F2BC
:102D70001000C2F2000000684FF0500181F311888A
:102D8000BFF36F8FBFF34F8F013007D0FEE700BF57
:102D9000009830B9009820B9009810B90098002820
:102DA000F6D001B070470000F0B581B0044600F0E5
:102DB00091F994F94560012E0FDB04F1240500BF61
:102DC000286850B1284601F019FB002818BF00F010
:102DD00001FBF0B2013E0128F2D8FF2684F84560DD
:102DE00000F09CF900F076F994F94470012F0EDBA5
:102DF00004F11005286850B1284601F0FFFA0028B8
:102E000018BF00F0E7FAF8B2013F0128F2D884F8C1
:102E1000446001B0BDE8F04000F080B92DE9F04118
:102E200000F10805092D01D200250AE010F0070184
:102E300007D009398D429ABF20F0070000F1100534
:102E4000002500F065FB40F2341CC2F2000CDCF8F7
:102E500000303BB1DCF80410012D4FF0000423DA00
:102E600049E000BF40F29820C2F20000420700F59E
:102E7000406200F1070122F0070218BF21F00700AD
:102E80000021A2F10803CCE90501CCF8003042E9A9
:102E90000211191ADCF80030C0E90031CCE9011147
:102EA000012D4FF0000426DB8D4224D8DCF81420DD
:102EB00040F2982EC2F2000E72452BD30EF6FF366A
:102EC000B24227D857680CF11400AF422CD21468D4
:102ED00064B100BF74455BD310462246B44257D854
:102EE0005768AF4220D21468002CF3D14FF001088C
:102EF0009A421DD1002401F0F3FA600700F07180BE
:102F00004FF0500080F31188BFF36F8FBFF34F8FE6
:102F1000FEE700BF4FF0500080F31188BFF36F8FC2
:102F2000BFF34F8FFEE700BF4FF000089A42E1D099
:102F3000036803F10804744510D3B4420ED8136833
:102F4000B8F1000F036013D04FF0500080F31188E8
:102F5000BFF36F8FBFF34F8FFEE700BF4FF05000FE
:102F600080F31188BFF36F8FBFF34F8FFEE700BF71
:102F70007F1B102F16D95619710715D04FF050002E
:102F800080F31188BFF36F8FBFF34F8FFEE700BF51
:102F90004FF0500080F31188BFF36F8FBFF34F8F56
:102FA000FEE700BF556804E0C6E90037DCF804100E
:102FB0000660DCF80830481B9842CCF8040038BFA3
:102FC000CCF8080045F000400021C2E90010DCF810
:102FD0000C000130CCF80C0001F082FA60077FF49D
:102FE0008FAF2046BDE8F081034642F66950C0F637
:102FF00000004FF0807C21F0010103E90310A3F1F0
:10300000400043F8202C70470169D0E90132D1F823
:1030100004C09A608445536008BF4A600B68002270
:103020000261581E0860704740F2C000C2F2000002
:103030000069704741F29C03C2F20003036040F64E
:103040009C60C2F2000008608020106070470000A1
:103050004FF0FF31024642F8081F0021C0E9032269
:10306000C0E90012704700000021016170470000B4
:1030700010B5D1F800C01CF1010213D000F1080412
:1030800062681368634511D853681C68644511D899
:103090005A68146864450FD854682368A646634587
:1030A000EED90BE00269D2F804E007E0964622462A
:1030B00004E000BF9E4601E096461A46C1F804E0CF
:1030C000CEF808108A60516002680861511C0160E6
:1030D00010BD00004FF0500080F31188BFF36F8FD8
:1030E000BFF34F8F40F21000C2F2000001684A1C8B
:1030F000026009B1704700BF4EF60450CEF20000E6
:103100000068000608BF70474FF0500080F3118838
:10311000BFF36F8FBFF34F8FFEE7000040F2100048
:10312000C2F20000016839B10139016018BF70476F
:10313000002080F3118870474FF0500080F3118811
:10314000BFF36F8FBFF34F8FFEE70000F0B581B084
:10315000D0B140F29825A0F10804C2F20005AC42BB
:1031600014D305F6FF36B44210D850F8041C0029D9
:1031700016D44FF0500080F31188BFF36F8FBFF368
:103180004F8F00BFFEE700BF01B0F0BD4FF0500011
:1031900080F31188BFF36F8FBFF34F8FFEE700BF3F
:1031A00022684AB14FF0500080F31188BFF36F8F4F
:1031B000BFF34F8FFEE700BF21F0004140F8041C31
:1031C000074600F0A5F940F2341CC2F2000C57F893
:1031D00004ECDCF804000CF114017044CCF8040099
:1031E000084600BF0268A2420AD21068A0420BD271
:1031F0000268A24204D210681346A042F2D304E04F
:103200000346104601E000BF13468B4203D0AB4299
:1032100010D3B3420ED859685A18A24203D18E4433
:103220001C46C3F804E004EB0E0181420CD00146B9
:1032300012E000BF4FF0500080F31188BFF36F8F92
:10324000BFF34F8FFEE700BFDCF80010884203D0C9
:10325000D0E9001070446060A342216018BF1C6078
:10326000DCF810000130CCF8100001B0BDE8F040EF
:1032700001F036B94EF21000CEF2000000210160DC
:10328000816040F20801C2F20001096844F6D3529D
:10329000C1F26202A1FB02124FF0FF3101EB921169
:1032A000416007210160704740F2B800EFF30581EB
:1032B0001029C2F2000011D34EF2F032CEF2000219
:1032C000895C0278914209D24FF0500080F3118856
:1032D000BFF36F8FBFF34F8FFEE700BF4EF60C5169
:1032E000CEF200010968406801F4E061814298BFB4
:1032F00070474FF0500080F31188BFF36F8FBFF31A
:103300004F8F00BFFEE700002DE9F04381B0002899
:1033100048D040F2C006C2F2000671690131716105
:103320007169012926D140F20825C2F2000507463D
:10333000B46AD6F81880D6F81C9028680430FFF7D5
:1033400063FE40B928680121C06A326801FA00F0C2
:1033500022EA000030602868E4194460286800F11F
:10336000040111D34846FFF783FE01F0B9F8A8B96C
:1033700018E000BF4FF0500080F31188BFF36F8F4B
:10338000BFF34F8FFEE700BF4046FFF771FE706A44
:10339000844238BF746201F0A3F818B101B0BDE8EF
:1033A000F08300BF4EF60450CEF200004FF0805183
:1033B0000160BFF34F8FBFF36F8F01B0BDE8F083A3
:1033C00040F2C001C2F200014A6B0260896A4160AA
:1033D0007047000040F2C000C2F20000012101620B
:1033E0007047000080B110B50C4640F20821C2F2CF
:1033F000000109681831FFF73BFE20460121BDE8B6
:103400001040FFF7FFBA00BF4FF0500080F3118863
:10341000BFF36F8FBFF34F8FFEE70000F0B58DB0A5
:1034200044F24940C4F24C500027079006A805A971
:1034300004AA0A97CDF82570CDF821708DF8207078
:10344000CDE90577FFF7F6FDDDE90456069C002E71
:103450000B973FD0002C47D054200C900C98542848
:103460004CD10C9820465421FCF77DFF02202663A6
:1034700084F851000BA80026CDE9006042F6CD305B
:10348000C0F6000007A92A4600230294FFF7E2FBDA
:103490002046FFF709FB0B9940F2C000C2F2000082
:1034A000C16279B14FF0500181F31188BFF36F8F82
:1034B000BFF34F8F4FF0FF3141620121816086627F
:1034C00000F066F844F68070C0F6000000680DB0A9
:1034D000F0BD00BF4FF0500080F31188BFF36F8F35
:1034E000BFF34F8FFEE700BF4FF0500080F311880D
:1034F000BFF36F8FBFF34F8FFEE700BF4FF0500059
:1035000080F31188BFF36F8FBFF34F8FFEE700008A
:1035100040F2C000C2F200004169013141617047D0
:1035200040F2C000C2F20000416900291EBF012123
:1035300001627047002101620068B0FA80F0C0B2F9
:10354000C0F11F0040F20C2100EB8000C2F200012C
:1035500051F8202092B101EB8000416800F108028F
:1035600049689142416001D1C1684160C86840F238
:103570000821C2F200010860086870474FF050004F
:1035800080F31188BFF36F8FBFF34F8FFEE700000A
:10359000B0B584B04EF62050CEF2000050F8181CA2
:1035A00042F2C153CA6AC0F600039A420AD04FF0F1
:1035B000500080F31188BFF36F8FBFF34F8F00BFB0
:1035C000FEE700BF896B42F27D52C0F600029142D5
:1035D0000AD04FF0500080F31188BFF36F8FBFF314
:1035E0004F8F00BFFEE700BF4EF200410022CEF237
:1035F000000101920A788DF80B20FF220A700A78E8
:103600008DF803209DF8032012F0500340F2B80219
:10361000C2F20002137000F081809DF8033003F0C5
:103620005003502B40F084809DF90330B3F1FF3FED
:103630005ADD019B0025082B4FF0000306D0019BAB
:103640004FF4E064A4EB032303F4E06353609DF8BC
:103650000B200A70016841F47F010160016841F0AC
:103660007F41016040F8045CFFF704FE40F2100463
:10367000C2F200042560FFF767FBFFF751FF0395D7
:1036800020684FF0500181F31188BFF36F8FBFF3B3
:103690004F8F01303CD000BFFEE700BF019B0133DC
:1036A00001939DF803305B008DF803309DF90330E2
:1036B000B3F1FF3FBDDC019B013301939DF8033063
:1036C0005B008DF803309DF90330B3F1FF3FB0DCB0
:1036D000019B013301939DF803305B008DF80330AB
:1036E0009DF90330002BA4D5019B013301939DF874
:1036F00003305B008DF803309DF90330B3F1FF3FD9
:10370000CCDD96E7039830B9039820B9039810B937
:1037100003980028F6D0002004B0B0BD4FF0500050
:1037200080F31188BFF36F8FBFF34F8FFEE700BFA9
:103730004FF0500080F31188BFF36F8FBFF34F8FAE
:10374000FEE70000E0B3A0FB0123CBBB01FB00F2CE
:1037500012F1490F34D8F0B581B0054602F14800A6
:103760000E46FFF75BFB044630B30027204684F883
:103770004670002E18BF48302060C4E90F56FFF78E
:10378000A9FC2068D4E90F12A76302FB01030139E9
:1037900001FB0201C4E90103FF20E16084F8440059
:1037A00084F8450004F11000FFF752FC04F12400F6
:1037B000FFF74EFCFFF7B2FC204601B0F0BD00BFA2
:1037C0004FF0500080F31188BFF36F8FBFF34F8F1E
:1037D000FEE7000010B582B073B118B101B90AB9A3
:1037E000A1B19AB94FF0500080F31188BFF36F8FE9
:1037F000BFF34F8FFEE700BF4FF0500080F31188FA
:10380000BFF36F8FBFF34F8FFEE700BF48240194D3
:10381000019C482C18D1A0FB014C019C01240029DB
:1038200083F8464008BF1A46BCF1000F1A60C3E98E
:103830000F0113D04FF0500080F31188BFF36F8F4A
:10384000BFF34F8FFEE700BF4FF0500080F31188A9
:10385000BFF36F8FBFF34F8FFEE700BF1C46FFF72C
:1038600039FC2068D4E90F12002302FB010C013956
:1038700001FB0201A363C4E9010CFF20E16084F8AD
:10388000440084F8450004F11000FFF7E1FB04F167
:103890002400FFF7DDFBFFF741FC204602B010BD1E
:1038A0002DE9F04F83B00292C0B11D460446F9B134
:1038B000022D02D1E06B01285CD116460F4600F0C4
:1038C00065FC18BB16B34FF0500080F31188BFF3AE
:1038D0006F8FBFF34F8F00BFFEE700BF4FF0500068
:1038E00080F31188BFF36F8FBFF34F8FFEE700BFE8
:1038F000206C0028DCD04FF0500080F31188BFF31B
:103900006F8FBFF34F8F00BFFEE700BFFFF7E2FBF3
:10391000A06B022D65D0E16B884262D3029800282B
:1039200000F018816846FFF74BFDFFF7F7FBFFF744
:10393000EFFDFFF7CFFB94F84400FF2804BF002001
:1039400084F8440094F84500FF2804BF002084F860
:103950004500FFF7E3FB684602A900F04DFB98B174
:103960002046FFF721FA00F0BBFD002003B0BDE8C0
:10397000F08F00BF4FF0500080F31188BFF36F8FBE
:10398000BFF34F8FFEE700BF04F11008FFF7A2FB63
:10399000D4F83890E66BFFF7C1FBB14516D1029918
:1039A0004046FFF71FFD2046FFF7FEF900F098FDA7
:1039B00088B94EF60450CEF200004FF080510160FD
:1039C000BFF34F8FBFF36F8F05E000BF2046FFF7B7
:1039D000EBF900F085FDFFF77DFBA06BE16B884202
:1039E00066D2A66B226CDAB139462DB3E068FCF7DB
:1039F00075FCE168206C2268091A9142E16003D2EB
:103A0000A16840420844E060A81EB0FA80F0400976
:103A10003146002E18BF01210840361A18E000BFB9
:103A20002068A8B9A06800F081FC0021B0FA80F0FD
:103A3000A16040090DE000BF6068FCF74FFCD4E9CD
:103A40000101226C10448842606001D320686060EC
:103A5000012054F8241F721C6261A9B1204600F0B5
:103A6000CDFC50B14EF60450CEF200004FF0805124
:103A70000160BFF34F8FBFF36F8FFFF74FFB012044
:103A800003B0BDE8F08F00BF0028F6D14EF6045019
:103A9000CEF200004FF080510160BFF34F8FBFF3B3
:103AA0006F8FFFF73BFB012003B0BDE8F08F00BF35
:103AB000E94602AE0CE000BF2046FFF775F900F0C2
:103AC0000FFDFFF707FBA06BE16B8842FFF489AFA6
:103AD000029800283ED0FFF721FBFFF719FDFFF702
:103AE000F9FA94F84400FF2804BF002084F8440049
:103AF00094F84500FF2804BF002084F84500FFF734
:103B00000DFB4846314600F077FA00287FF428AFD5
:103B1000FFF7E0FAD4F838A0D4F83CB0FFF7FEFA8B
:103B2000DA45C9D102994046FFF75CFC2046FFF711
:103B30003BF900F0D5FC0028C3D14EF60450CEF27C
:103B400000004FF080510160BFF34F8FBFF36F8FC4
:103B5000B7E700BFFFF7E2FA002003B0BDE8F08F3F
:103B60002DE9F04F81B020B31D460446F1B1022D7E
:103B700002D1E06B01284BD10F469046FFF794FB32
:103B8000EFF3118A4FF0500080F31188BFF36F8F6D
:103B9000BFF34F8FA06B022D16D0E16B884213D379
:103BA00000208AF3118801B0BDE8F08F206C002856
:103BB000DDD04FF0500080F31188BFF36F8FBFF35B
:103BC0004F8F00BFFEE700BF94F945B0A06BA66B16
:103BD000226C5FFA8BF92AB339465DB3E068FCF7D3
:103BE0007DFBE168206C2268091A9142E16003D2F2
:103BF000A16840420844E060A81EB0FA80F0400985
:103C00003146002E18BF01210840361A1EE000BFC1
:103C10004FF0500080F31188BFF36F8FBFF34F8FC9
:103C2000FEE700BF206888B9A06800F07FFB002095
:103C3000A0600BE06068FCF751FBD4E90101226C45
:103C400010448842606001D320686060701CB9F144
:103C5000FF0FA06310D0FFF7E7F9584526D9B9F157
:103C60007F0F1FD14FF0500080F31188BFF36F8F8B
:103C7000BFF34F8FFEE700BF54F8240FB0B12046CA
:103C800000F0BCFB0146B8F1000F4FF001003FF41B
:103C900088AF002918BFC8F800008AF3118801B066
:103CA000BDE8F08F09F1010084F8450001208AF396
:103CB000118801B0BDE8F08F2DE9F04F83B002927A
:103CC00090B115460446002948D00E4600F05EFA31
:103CD000A0B99DB14FF0500080F31188BFF36F8FF2
:103CE000BFF34F8FFEE700BF4FF0500080F3118805
:103CF000BFF36F8FBFF34F8FFEE700BFFFF7EAF907
:103D0000D4F838A0BAF1000F36D0226C52B1D4E901
:103D1000023130461144E160994224BF2168E160DC
:103D2000FCF7DCFA54F8100FAAF10101A16270B19E
:103D3000204600F063FB50B14EF60450CEF2000076
:103D40004FF080510160BFF34F8FBFF36F8F01249D
:103D5000FFF7E4F9204603B0BDE8F08F206C00289F
:103D6000B3D04FF0500080F31188BFF36F8FBFF3D3
:103D70004F8F00BFFEE700BF0298002800F0B4801C
:103D80006846FFF71DFBFFF7C9F9FFF7C1FBFFF717
:103D9000A1F994F8440004F12408FF2804BF00208E
:103DA00084F8440094F84500FF2804BF002084F8FC
:103DB0004500FFF7B3F9684602A900F01DF978B194
:103DC0002046FEF7F1FF00F08BFBFFF783F9A56BB0
:103DD000FFF7A4F92DBB0024204603B0BDE8F08F07
:103DE000FFF778F9A56BFFF799F92DB12046FEF79B
:103DF000DBFF00F075FB14E002994046FFF7F2FA92
:103E00002046FEF7D1FF00F06BFB50B94EF6045090
:103E1000CEF200004FF080510160BFF34F8FBFF32F
:103E20006F8FFFF757F9D4F838A0BAF1000F7FF47D
:103E30006CAF4FF00009EB4602AF13E02046FEF7EF
:103E4000B3FF00F04DFBFFF745F9A56BFFF766F9EF
:103E5000002DC0D0FFF73EF9D4F838A0BAF1000F1A
:103E60007FF453AF029800283ED0FFF757F9FFF7D1
:103E70004FFBFFF72FF994F84400FF2808BF84F8A0
:103E8000449094F84500FF2808BF84F84590FFF758
:103E900045F95846394600F0AFF80028CED1FFF773
:103EA00019F9A56BFFF73AF935B12046FEF77CFF0B
:103EB00000F016FBCEE700BF02994046FFF792FAEA
:103EC0002046FEF771FF00F00BFB0028C2D14EF632
:103ED0000450CEF200004FF080510160BFF34F8FCD
:103EE000BFF36F8FB6E700BF0024FFF717F9204636
:103EF00003B0BDE8F08F00002DE9F04700283BD06B
:103F00000446002942D00D469046FFF7CDF9EFF365
:103F100011894FF0500080F31188BFF36F8FBFF30A
:103F20004F8FA76B002F3FD094F94460226C5FFA4B
:103F300086FA52B1D4E902011144E160814224BF02
:103F40002168E1602846FCF7C9F9781EBAF1FF0F35
:103F5000A0632FD0FFF768F8B04241D9BAF17F0FC4
:103F60003AD14FF0500080F31188BFF36F8FBFF349
:103F70004F8F00BFFEE700BF4FF0500080F3118865
:103F8000BFF36F8FBFF34F8FFEE700BF206C002899
:103F9000B9D04FF0500080F31188BFF36F8FBFF39B
:103FA0004F8F00BFFEE700BF002089F31188BDE8F6
:103FB000F08700BF54F8100F90B1204600F01EFAB1
:103FC0000146B8F1000F4FF0010018BF00290DD1D4
:103FD00089F31188BDE8F0870AF1010084F84400F4
:103FE000012089F31188BDE8F08700BFC8F8000000
:103FF00089F31188BDE8F087B0B548B30C4689B3A2
:104000000546FFF767F840F2C00CC2F2000CDCF87E
:1040100028302268501C37D0AE4668682D68DCF81E
:104020003410A94201D0834226D2181A824223D9E1
:10403000101A2060DCF834000024CEF80000DCF810
:104040002800CEF80400FFF769F82046B0BD00BF95
:104050004FF0500080F31188BFF36F8FBFF34F8F85
:10406000FEE700BF4FF0500080F31188BFF36F8F61
:10407000BFF34F8FFEE700BF002020600124FFF751
:104080004DF82046B0BD00BF0024FFF747F820469A
:10409000B0BD00002DE9F04F83B007469000984670
:1040A00015468946FEF7BAFEF8B104465420FEF7DD
:1040B000B5FEB8B1DDE90CBA54210646FCF753F958
:1040C000384649462A4643463463CDE900BA02964B
:1040D000FEF7C0FD3046FEF7E7FC012003B0BDE867
:1040E000F08F00BF2046FFF731F84FF0FF3003B0EC
:1040F000BDE8F08F2DE9F04786B00F9D00270497AB
:1041000035B3109C74B354270597059F542F33D1B2
:10411000DDF838A0059F814620460E46542198467A
:104120001746FCF720F9022084F8510004A8256303
:10413000CDE900A0484631463A4643460294FEF790
:1041400089FD2046FEF7B0FC049806B0BDE8F08774
:104150004FF0500080F31188BFF36F8FBFF34F8F84
:10416000FEE700BF4FF0500080F31188BFF36F8F60
:10417000BFF34F8FFEE700BF4FF0500080F3118870
:10418000BFF36F8FBFF34F8FFEE7000040F2C00018
:10419000C2F20000816800290FBF01204069B0FA17
:1041A00080F0400918BF4000704700002DE9F04F33
:1041B00040F2C00BC2F2000BDBF8140040B1DBF898
:1041C00030000130CBF830000020BDE8F08F00BF98
:1041D000DBF8280010F1010ACBF828A028D3DBF87F
:1041E0001800006850B14FF0500080F31188BFF301
:1041F0006F8FBFF34F8F00BFFEE700BFDBF81800E3
:10420000DBF81C30CBF81830CBF81C00DBF834009E
:104210000130CBF83400DBF81800006820B1DBF87F
:104220001800C068006801E04FF0FF30CBF82400B0
:10423000DBF8240040F2082C40F20C298245C2F23F
:10424000000CC2F2000901D200205DE0DBF818008A
:104250004FF0000E006800284ED04FF001080020FB
:1042600022E000BFE96ADBF8002008FA01F31A43F4
:10427000CBF8002001EB810209EB82035C686B61E3
:10428000A768C5E90247A66059F822407E60631C12
:1042900049F82230DCF80020D26ADBF8183091426D
:1042A00088BF0120196859B3DBF81840E468E56855
:1042B0002E4656F8044FA24524D36C69D5E902373F
:1042C00062689F60B2427B6008BF67602268AF6A25
:1042D000013A002F2260C5D0D5E90734796805F18D
:1042E00018029C609142636008BF7C603968C5F821
:1042F00028E001393960B5E74FF0FF34002001E0D4
:104300004FF0FF34CBF82440DCF80010C96A01EB11
:10431000810159F82110012988BF0120DBF8201004
:10432000002918BF0120BDE8F08F0000002804BF5D
:104330000020704740F20821C2F20001096888425B
:104340000AD04FF0500080F31188BFF36F8FBFF396
:104350004F8F00BFFEE700BF816C002944D04A1E8A
:10436000014682644FF000003DD1CB6A4A6C934213
:1043700008BF704770B50E1D30460D46FEF744FE6F
:1043800040F2C00C2946C2F2000C48B9C86A0123A9
:10439000DCF8005003FA00F025EA0000CCF8000039
:1043A0004B6CC3F10700CB6288610120DCF8005040
:1043B00000FA03F22A43CCF8002040F20C2C03EB65
:1043C0008302C2F2000C0CEB82056B684D619C68A5
:1043D000C1E902349E605CF822306660591C4CF8DA
:1043E0002210BDE8704070474FF0500080F31188F4
:1043F000BFF36F8FBFF34F8FFEE70000C068C06848
:1044000040B370B5816AD0E90723D1F804C000F148
:10441000180E9360F4455A6008BF4B600B68002289
:1044200082625A1E40F2C00C0A60C2F2000CDCF834
:104430001410C9B1614651F84C2F4B6801329C6889
:104440008162C0E90734C3F808E0C36AC4F804E035
:104450000A6035E04FF0500080F31188BFF36F8F92
:10446000BFF34F8FFEE700BF4369D0E902215C68CC
:1044700000F1040E916074454A6008BF59601968E4
:1044800001391960C36A0121DCF800209940114309
:1044900040F20C22CCF8001003EB8301C2F20002C0
:1044A00002EB810465684461AE68C0E90256C6F853
:1044B00004E052F82160C5F808E0701C42F82100C1
:1044C00040F20820C2F200000068C06A8342BDE8E2
:1044D000704092BF00200120CCF8200070470000FF
:1044E0002DE9F04381B0FEF7F5FD40F2C004C2F2C1
:1044F0000004606960B1606901386061606988B119
:104500000024FEF70BFE204601B0BDE8F08300BF9B
:104510004FF0500080F31188BFF36F8FBFF34F8FC0
:10452000FEE700BF20690028EAD0E06C40F20828CE
:104530000028C2F2000850D040F20C294FF0000CC5
:104540004FF0010EC2F20009A36DDB689F6AD3E948
:104550000715786803F11806B0428D60696008BFDE
:104560007D603868C3F828C0013838605F69D3E9D6
:10457000021678681D1DA8428E60716008BF7E60BB
:10458000386801383860D86A21680EFA00F631437D
:10459000216000EB800109EB810677685E61BA68F3
:1045A000C3E90272556059F82120BD60013249F813
:1045B0002120D8F80010C96A884288BFC4F820E0DA
:1045C000E06C0028C0D1A069006818B1A069C0687B
:1045D000006801E04FF0FF306062256B4DB10127AC
:1045E000FFF7E4FD002818BF2762013DF8D1002045
:1045F0002063206A00283FF483AFD8F800004EF60D
:104600000450CEF200004FF080510160BFF34F8F95
:104610000124BFF36F8FFEF781FD204601B0BDE896
:10462000F0835FEA400C08BF91F0000F4FEA8C2343
:104630004FEAC12243EA51514FEA1C5018BF00F51E
:10464000F0404FEA300018BF41F000415FEA6C5C77
:1046500000F02980BCF1FF3F08BF40F08040704768
:10466000130C06BF12044FF0100C4FF0000C130E89
:1046700004BF12020CF1080C130F04BF12010CF15D
:10468000040C930F04BF92000CF1020CD30F04BF73
:1046900052000CF1010C11464FF00002A0F11F0076
:1046A000A0EB0C00704711F0004F08BF704731F0CD
:1046B00000413FF4D5AF0B0C06BF09044FF0100CBE
:1046C0004FF0000C0B0E04BF09020CF1080C0B0F8D
:1046D00004BF09010CF1040C8B0F04BF89000CF11D
:1046E000020CCB0F04BF49000CF1010CCCF12003EC
:1046F00022FA03F341EA030102FA0CF2A0EB0C00E8
:1047000000F101007047000023F07F4720F07F4C4C
:1047100080EA030000F00040ACEB070303F57C5394
:1047200003F1FF032DE9804909B44FEA144324EA59
:1047300003484FEA154B25EA0B4E0FF2042606EB11
:1047400013273E7803FB0667C7F5000707FB06F64D
:104750004FEAD64606F102064FEA543707FB066CCD
:10476000CCF1005C4FEA1C472CEA074C0CFB06F529
:1047700007FB06F404EB15464FEA961649085FEA74
:10478000320234BF00204FF000404FEAD13706FB21
:1047900007FC4FEA1C4C0CFB0BF7D21B03FB0CF77E
:1047A00061EB07010CFB0EF7B0EB074072EB174211
:1047B0000CFB08F734BFA2EB0742B2EB074261EBF8
:1047C00017414FEA0C444FEA910706FB07FC4FEAFA
:1047D0001C4C0CFB0BF7B0EBC74072EB573203FBE2
:1047E0000CF734BFA2EBC742B2EBC74261EB5731C3
:1047F0000CFB0EF7B0EBC70072EB57720CFB08F71F
:1048000034BFA2EBC702B2EBC70261EB57714FEAAC
:10481000816141EA92114FEA826242EA90124FEAC4
:10482000806004EBCC04039F4FEAD13706FB07FC02
:104830004FEA1C4C0CFB0BF7D21B03FB0CF761EB94
:1048400007010CFB0EF7B0EB074072EB17420CFBB5
:1048500008F734BFA2EB0742B2EB074261EB174106
:104860004FEA8C5504EB9C244FEA910706FB07FCAA
:104870004FEA1C4C0CFB0BF7B0EBC74072EB573206
:1048800003FB0CF734BFA2EBC742B2EBC74261EBAC
:1048900057310CFB0EF7B0EBC70072EB57720CFBF5
:1048A00008F734BFA2EBC702B2EBC70261EB577146
:1048B0004FEA816141EA92114FEA826242EA901224
:1048C0004FEA806015EB4C2544F100044FEAD137E4
:1048D00006FB07FC4FEA1C4C0CFB0BF7D21B03FB3F
:1048E0000CF761EB07010CFB0EF7B0EB074072EB26
:1048F00017420CFB08F734BFA2EB0742B2EB0742AA
:1049000061EB17414FEA813141EA92414FEA82322D
:1049100042EA90424FEA80304FEA0C7615EB1C15C4
:1049200044F1000448EA03434EEA0B484FF0000EFE
:10493000B2EB080C71EB030724BF624639464EEB1D
:104940000E0E4FF0000B0018524149414BEB0B0B80
:10495000B2EB080C71EB03077BF1000B24BF62463E
:1049600039464EEB0E0E4FF0000B001852414941F4
:104970004BEB0B0BB2EB080C71EB03077BF1000B5D
:1049800024BF624639464EEB0E0E51EA020718BFAD
:1049900046F0010616EB0E7655F1000254F10001C7
:1049A00003D5BDE88901BDE80088BDE88901BDE8FF
:1049B0000048B619524141EB0101A3F101037047D0
:1049C00080807F7E7D7C7B7A79787776767574734C
:1049D000727171706F6E6E6D6C6C6B6A6A6968680B
:1049E000676666656464636362616160605F5F5EA1
:1049F0005E5D5D5C5C5B5B5A5A5959585857575617
:104A0000565555555454535352525251515050507B
:104A10004F4F4F4E4E4D4D4D4C4C4C4B4B4B4A4ACD
:104A20004A49494948484847474747464646454511
:104A3000454444444443434343424242424141414A
:104A40009C46002B30D477002BD04FEA37071CB59B
:104A500003B44FF010004FF01001BAF1000F06D070
:104A6000BCF1000FDCBF40F0080040F008014FF03F
:104A700000000FBCBDE810400BF1010BBBF1010FB2
:104A800008BF5FEA170722BF12F1010211F101010D
:104A90004FF0004143F1000300F0004043EA000002
:104AA0007047F9D35708D0E746EA06464FEA16465C
:104AB00013F1400F1FDD13F1200FDFBF16430A462D
:104AC000002120335B42BED0C3F1200746EA0646F0
:104AD0004FEA164602FA07F746EA070622FA03F2F9
:104AE000C3F1200701FA07F742EA070221FA03F1AE
:104AF0004FF00003A7E746EA020646EA06464FEAF9
:104B0000164646EA0106BCBF46EA0646360C4FF09A
:104B100000034FF000024FF0000194E72DE9804CB4
:104B200070B49A46934691E8380007C831EA400CC1
:104B300048BF34EA430C03D5FFF7E6FDFFF780FFDB
:104B4000F0BCBDE8008C2DE9804C70B49A469346C9
:104B500091E8380007C810F0804F08BF13F0804F6D
:104B600003D100F005F8FFF76BFFF0BCBDE8008C47
:104B700020F07F4723F07F4C80EA030000F00040E4
:104B800007EB0C03A3F57C53A3F1FE0392F0000F97
:104B900000F0B38095F0000F00F077802DE9014917
:104BA0004FEA114021EA00484FEA144624EA06473A
:104BB00000FB06FC08FB06F607FB08F818EB0648A6
:104BC0004CEB164C00FB07F718EB07484CEB174073
:104BD0004FEA124B22EA0B4E4FEA154625EA0647EA
:104BE0000BFB06FC0EFB06F607FB0EFE1EEB064E4D
:104BF0004CEB164C0BFB07F71EEB074E4CEB174B21
:104C000018EB0B0840F1000018EB0E0B58EB0008F6
:104C100040F100008F1A4FF000014FF000063CBF3A
:104C2000C943661B14BFB5EB040C00213CBFC9434C
:104C3000F61B4FEA174427EA04454FEA1C472CEAC3
:104C4000074C04FB076205FB07F70CFB05F616EBA8
:104C5000074642EB174204FB0CFC16EB0C4642EBFA
:104C60001C421BEB060658EB020241414EEA8E0E37
:104C700046EA9E0601D5BDE80189B619524141EBCD
:104C80000101A3F10103BDE801894FEA144524EABB
:104C900005464FEA114721EA074C05FB07F406FBDE
:104CA00007F70CFB06F111EB074144EB174405FB3A
:104CB0000CFC11EB0C4144EB1C444FEA124722EA76
:104CC000074C05FB07F206FB07F70CFB06F616EB95
:104CD000074642EB174205FB0CFC16EB0C4642EB79
:104CE0001C456A1854F1000148BF7047B61952417B
:104CF00041EB0101A3F10103704795F0000F37D09C
:104D00004FEA114221EA02464FEA144724EA074CCF
:104D100002FB07F106FB07F70CFB06F414EB074454
:104D200041EB174102FB0CFC14EB0C4441EB1C4122
:104D30004FEA154725EA074C02FB07F506FB07F784
:104D40000CFB06F616EB074645EB174502FB0CFC81
:104D500016EB0C4645EB1C42121951F1000148BFFD
:104D60007047B619524141EB0101A3F101037047AD
:104D70004FEA144524EA05464FEA114721EA074C59
:104D800005FB07F106FB07F70CFB06F212EB0742E7
:104D900041EB174105FB0CFC12EB0C4251EB1C41A3
:104DA0004FF0000648BF7047921841EB0101A3F194
:104DB00001037047490050EAC12018BF04204A0D82
:104DC00018BF40F0010040F2FF72B2EB515F08BF24
:104DD00040F00200012808BF0520704730380A283B
:104DE00001D20120704700207047000010B5002953
:104DF0000AD00878002807D005487844FCF752FB11
:104E0000002801D0002010BD0248784410BD0000E9
:104E1000AA010000A201000010B500290AD00878FC
:104E2000002807D005487844FCF73CFB002801D057
:104E3000002010BD0248784410BD00009A01000017
:104E400092010000FBF738BFFCF76CB800000000CF
:104E500000000000303132333435363738394142C2
:104E600043444546403058003031323334353637CC
:104E70003839616263646566403078000400000878
:104E8000000000000000000200010000103031327C
:104E9000333435363738396162636465667870005B
:104EA0003031323334353637383941424344454660
:104EB0005850000002400000000000A00000000068
:104EC00005400000000000C8000000000C40000089
:104ED0000000409C00000000194000000020BCBE03
:104EE0000000000034400000BFC91B8E0000000419
:104EF000B5400000504BCFD06607E2CF0100000064
:104F00006C4100003E8251AADFEEA7340100000090
:104F1000D9420000DCB5A0E23A301F97FFFFFFFF47
:104F2000B4450000FD25A0C8E9A3C14FFFFFFFFF66
:104F3000FF3F00000000008000000000FF3F000075
:104F400000000080000000000000000000000000E1
:104F5000010203040607080900000000010203041F
:104F6000010202030405060708090A0B0C0D0E0FC7
:104F700010105461736B3031005461736B30320028
:104F800006000000D05000080000002018000000BB
:104F900050010008E850000818000020D816000052
:104FA000700100081C00000043000000F8FFFFFF34
:104FB0000C0000000E0000000F0000002E0000009A
:104FC0001001000043000000F8FFFFFF00404040D8
:104FD00040404040404041414141414040404040CC
:104FE0004040404040404040404040404005020278
:104FF0000202020202020202020202020220202037
:105000002020202020202002020202020202909092
:105010009090909010101010101010101010101090
:1050200010101010101010100202020202028888E4
:1050300088888888080808080808080808080808F0
:1050400008080808080808080202020240000000D8
:105050000000000000000000000000000000000050
:105060000000000000000000000000000000000040
:105070000000000000000000000000000000000030
:105080000000000000000000000000000000000020
:105090000000000000000000000000000000000010
:1050A0000000000000000000000000000000000000
:1050B00000000000000000000000000000000000F0
:1050C00000000000000000000000000000000000E0
:1050D000010000001000000000127A00785634121F
:0850E000AAAAAAAA0000000020
:04000005080000ED02
:00000001FF
